{
  "_format": "hh-sol-artifact-1",
  "contractName": "Marketplace",
  "sourceName": "contracts/Marketplace.sol",
  "abi": [
    {
      "inputs": [],
      "stateMutability": "nonpayable",
      "type": "constructor"
    },
    {
      "anonymous": false,
      "inputs": [
        {
          "indexed": true,
          "internalType": "uint256",
          "name": "itemId",
          "type": "uint256"
        },
        {
          "indexed": true,
          "internalType": "address",
          "name": "nftContract",
          "type": "address"
        },
        {
          "indexed": true,
          "internalType": "uint256",
          "name": "tokenId",
          "type": "uint256"
        },
        {
          "indexed": false,
          "internalType": "address",
          "name": "seller",
          "type": "address"
        },
        {
          "indexed": false,
          "internalType": "address",
          "name": "owner",
          "type": "address"
        },
        {
          "indexed": false,
          "internalType": "uint256",
          "name": "price",
          "type": "uint256"
        },
        {
          "indexed": false,
          "internalType": "bool",
          "name": "sold",
          "type": "bool"
        }
      ],
      "name": "MarketItemCreated",
      "type": "event"
    },
    {
      "inputs": [],
      "name": "_itemIds",
      "outputs": [
        {
          "internalType": "uint256",
          "name": "_value",
          "type": "uint256"
        }
      ],
      "stateMutability": "view",
      "type": "function"
    },
    {
      "inputs": [],
      "name": "_itemsSold",
      "outputs": [
        {
          "internalType": "uint256",
          "name": "_value",
          "type": "uint256"
        }
      ],
      "stateMutability": "view",
      "type": "function"
    },
    {
      "inputs": [
        {
          "internalType": "address",
          "name": "nftContract",
          "type": "address"
        },
        {
          "internalType": "uint256",
          "name": "tokenId",
          "type": "uint256"
        },
        {
          "internalType": "uint256",
          "name": "price",
          "type": "uint256"
        }
      ],
      "name": "createMarketItem",
      "outputs": [],
      "stateMutability": "payable",
      "type": "function"
    },
    {
      "inputs": [
        {
          "internalType": "address",
          "name": "nftContract",
          "type": "address"
        },
        {
          "internalType": "uint256",
          "name": "itemId",
          "type": "uint256"
        }
      ],
      "name": "createMarketSale",
      "outputs": [],
      "stateMutability": "payable",
      "type": "function"
    },
    {
      "inputs": [],
      "name": "fetchItemsCreated",
      "outputs": [
        {
          "components": [
            {
              "internalType": "uint256",
              "name": "itemId",
              "type": "uint256"
            },
            {
              "internalType": "address",
              "name": "nftContract",
              "type": "address"
            },
            {
              "internalType": "uint256",
              "name": "tokenId",
              "type": "uint256"
            },
            {
              "internalType": "address payable",
              "name": "seller",
              "type": "address"
            },
            {
              "internalType": "address payable",
              "name": "owner",
              "type": "address"
            },
            {
              "internalType": "uint256",
              "name": "price",
              "type": "uint256"
            },
            {
              "internalType": "bool",
              "name": "sold",
              "type": "bool"
            }
          ],
          "internalType": "struct Marketplace.MarketItem[]",
          "name": "",
          "type": "tuple[]"
        }
      ],
      "stateMutability": "view",
      "type": "function"
    },
    {
      "inputs": [],
      "name": "fetchMarketItems",
      "outputs": [
        {
          "components": [
            {
              "internalType": "uint256",
              "name": "itemId",
              "type": "uint256"
            },
            {
              "internalType": "address",
              "name": "nftContract",
              "type": "address"
            },
            {
              "internalType": "uint256",
              "name": "tokenId",
              "type": "uint256"
            },
            {
              "internalType": "address payable",
              "name": "seller",
              "type": "address"
            },
            {
              "internalType": "address payable",
              "name": "owner",
              "type": "address"
            },
            {
              "internalType": "uint256",
              "name": "price",
              "type": "uint256"
            },
            {
              "internalType": "bool",
              "name": "sold",
              "type": "bool"
            }
          ],
          "internalType": "struct Marketplace.MarketItem[]",
          "name": "",
          "type": "tuple[]"
        }
      ],
      "stateMutability": "view",
      "type": "function"
    },
    {
      "inputs": [],
      "name": "fetchMyNFTs",
      "outputs": [
        {
          "components": [
            {
              "internalType": "uint256",
              "name": "itemId",
              "type": "uint256"
            },
            {
              "internalType": "address",
              "name": "nftContract",
              "type": "address"
            },
            {
              "internalType": "uint256",
              "name": "tokenId",
              "type": "uint256"
            },
            {
              "internalType": "address payable",
              "name": "seller",
              "type": "address"
            },
            {
              "internalType": "address payable",
              "name": "owner",
              "type": "address"
            },
            {
              "internalType": "uint256",
              "name": "price",
              "type": "uint256"
            },
            {
              "internalType": "bool",
              "name": "sold",
              "type": "bool"
            }
          ],
          "internalType": "struct Marketplace.MarketItem[]",
          "name": "",
          "type": "tuple[]"
        }
      ],
      "stateMutability": "view",
      "type": "function"
    },
    {
      "inputs": [],
      "name": "getListingPrice",
      "outputs": [
        {
          "internalType": "uint256",
          "name": "",
          "type": "uint256"
        }
      ],
      "stateMutability": "view",
      "type": "function"
    },
    {
      "inputs": [
        {
          "internalType": "uint256",
          "name": "",
          "type": "uint256"
        }
      ],
      "name": "idToMarketitem",
      "outputs": [
        {
          "internalType": "uint256",
          "name": "itemId",
          "type": "uint256"
        },
        {
          "internalType": "address",
          "name": "nftContract",
          "type": "address"
        },
        {
          "internalType": "uint256",
          "name": "tokenId",
          "type": "uint256"
        },
        {
          "internalType": "address payable",
          "name": "seller",
          "type": "address"
        },
        {
          "internalType": "address payable",
          "name": "owner",
          "type": "address"
        },
        {
          "internalType": "uint256",
          "name": "price",
          "type": "uint256"
        },
        {
          "internalType": "bool",
          "name": "sold",
          "type": "bool"
        }
      ],
      "stateMutability": "view",
      "type": "function"
    }
  ],
  "bytecode": "0x60806040526658d15e1762800060045534801561001b57600080fd5b50600160008190555033600360006101000a81548173ffffffffffffffffffffffffffffffffffffffff021916908373ffffffffffffffffffffffffffffffffffffffff160217905550611b6d806100746000396000f3fe6080604052600436106100865760003560e01c806358eb2df51161005957806358eb2df51461013757806387506a0d14610153578063c23b139e1461017e578063c31508d21461019a578063f064c32e146101dd57610086565b80630f08efe01461008b57806312e85585146100b6578063202e3740146100e157806334a7f1931461010c575b600080fd5b34801561009757600080fd5b506100a0610208565b6040516100ad9190611747565b60405180910390f35b3480156100c257600080fd5b506100cb61051e565b6040516100d891906117e9565b60405180910390f35b3480156100ed57600080fd5b506100f6610528565b6040516101039190611747565b60405180910390f35b34801561011857600080fd5b506101216108c2565b60405161012e91906117e9565b60405180910390f35b610151600480360381019061014c919061144b565b6108ce565b005b34801561015f57600080fd5b50610168610c32565b60405161017591906117e9565b60405180910390f35b6101986004803603810190610193919061140f565b610c3e565b005b3480156101a657600080fd5b506101c160048036038101906101bc919061149a565b610ef7565b6040516101d49796959493929190611804565b60405180910390f35b3480156101e957600080fd5b506101f2610fa6565b6040516101ff9190611747565b60405180910390f35b606060006102166001611340565b905060006102246002611340565b61022e6001611340565b6102389190611913565b90506000808267ffffffffffffffff81111561027d577f4e487b7100000000000000000000000000000000000000000000000000000000600052604160045260246000fd5b6040519080825280602002602001820160405280156102b657816020015b6102a3611364565b81526020019060019003908161029b5790505b50905060005b8481101561051357600073ffffffffffffffffffffffffffffffffffffffff16600560006001846102ed91906118bd565b815260200190815260200160002060040160009054906101000a900473ffffffffffffffffffffffffffffffffffffffff1673ffffffffffffffffffffffffffffffffffffffff16141561050057600060018261034a91906118bd565b90506000600560008381526020019081526020016000209050806040518060e0016040529081600082015481526020016001820160009054906101000a900473ffffffffffffffffffffffffffffffffffffffff1673ffffffffffffffffffffffffffffffffffffffff1673ffffffffffffffffffffffffffffffffffffffff168152602001600282015481526020016003820160009054906101000a900473ffffffffffffffffffffffffffffffffffffffff1673ffffffffffffffffffffffffffffffffffffffff1673ffffffffffffffffffffffffffffffffffffffff1681526020016004820160009054906101000a900473ffffffffffffffffffffffffffffffffffffffff1673ffffffffffffffffffffffffffffffffffffffff1673ffffffffffffffffffffffffffffffffffffffff168152602001600582015481526020016006820160009054906101000a900460ff1615151515815250508486815181106104e3577f4e487b7100000000000000000000000000000000000000000000000000000000600052603260045260246000fd5b60200260200101819052506001856104fb91906118bd565b945050505b808061050b906119a1565b9150506102bc565b508094505050505090565b6000600454905090565b606060006105366001611340565b905060008060005b838110156105df573373ffffffffffffffffffffffffffffffffffffffff166005600060018461056e91906118bd565b815260200190815260200160002060040160009054906101000a900473ffffffffffffffffffffffffffffffffffffffff1673ffffffffffffffffffffffffffffffffffffffff1614156105cc576001836105c991906118bd565b92505b80806105d7906119a1565b91505061053e565b5060008267ffffffffffffffff811115610622577f4e487b7100000000000000000000000000000000000000000000000000000000600052604160045260246000fd5b60405190808252806020026020018201604052801561065b57816020015b610648611364565b8152602001906001900390816106405790505b50905060005b848110156108b7573373ffffffffffffffffffffffffffffffffffffffff166005600060018461069191906118bd565b815260200190815260200160002060040160009054906101000a900473ffffffffffffffffffffffffffffffffffffffff1673ffffffffffffffffffffffffffffffffffffffff1614156108a45760006001826106ee91906118bd565b90506000600560008381526020019081526020016000209050806040518060e0016040529081600082015481526020016001820160009054906101000a900473ffffffffffffffffffffffffffffffffffffffff1673ffffffffffffffffffffffffffffffffffffffff1673ffffffffffffffffffffffffffffffffffffffff168152602001600282015481526020016003820160009054906101000a900473ffffffffffffffffffffffffffffffffffffffff1673ffffffffffffffffffffffffffffffffffffffff1673ffffffffffffffffffffffffffffffffffffffff1681526020016004820160009054906101000a900473ffffffffffffffffffffffffffffffffffffffff1673ffffffffffffffffffffffffffffffffffffffff1673ffffffffffffffffffffffffffffffffffffffff168152602001600582015481526020016006820160009054906101000a900460ff161515151581525050848681518110610887577f4e487b7100000000000000000000000000000000000000000000000000000000600052603260045260246000fd5b602002602001018190525060018561089f91906118bd565b945050505b80806108af906119a1565b915050610661565b508094505050505090565b60018060000154905081565b60026000541415610914576040517f08c379a000000000000000000000000000000000000000000000000000000000815260040161090b906117a9565b60405180910390fd5b60026000819055506000811161095f576040517f08c379a0000000000000000000000000000000000000000000000000000000008152600401610956906117c9565b60405180910390fd5b60045434146109a3576040517f08c379a000000000000000000000000000000000000000000000000000000000815260040161099a90611789565b60405180910390fd5b6109ad600161134e565b60006109b96001611340565b90506040518060e001604052808281526020018573ffffffffffffffffffffffffffffffffffffffff1681526020018481526020013373ffffffffffffffffffffffffffffffffffffffff168152602001600073ffffffffffffffffffffffffffffffffffffffff16815260200183815260200160001515815250600560008381526020019081526020016000206000820151816000015560208201518160010160006101000a81548173ffffffffffffffffffffffffffffffffffffffff021916908373ffffffffffffffffffffffffffffffffffffffff1602179055506040820151816002015560608201518160030160006101000a81548173ffffffffffffffffffffffffffffffffffffffff021916908373ffffffffffffffffffffffffffffffffffffffff16021790555060808201518160040160006101000a81548173ffffffffffffffffffffffffffffffffffffffff021916908373ffffffffffffffffffffffffffffffffffffffff16021790555060a0820151816005015560c08201518160060160006101000a81548160ff0219169083151502179055509050508373ffffffffffffffffffffffffffffffffffffffff166323b872dd3330866040518463ffffffff1660e01b8152600401610b9a939291906116cb565b600060405180830381600087803b158015610bb457600080fd5b505af1158015610bc8573d6000803e3d6000fd5b50505050828473ffffffffffffffffffffffffffffffffffffffff16827f045dfa01dcba2b36aba1d3dc4a874f4b0c5d2fbeb8d2c4b34a7d88c8d8f929d1336000876000604051610c1c9493929190611702565b60405180910390a4506001600081905550505050565b60028060000154905081565b60026000541415610c84576040517f08c379a0000000000000000000000000000000000000000000000000000000008152600401610c7b906117a9565b60405180910390fd5b6002600081905550600060056000838152602001908152602001600020600501549050600060056000848152602001908152602001600020600201549050813414610d04576040517f08c379a0000000000000000000000000000000000000000000000000000000008152600401610cfb90611769565b60405180910390fd5b6005600084815260200190815260200160002060030160009054906101000a900473ffffffffffffffffffffffffffffffffffffffff1673ffffffffffffffffffffffffffffffffffffffff166108fc349081150290604051600060405180830381858888f19350505050158015610d80573d6000803e3d6000fd5b508373ffffffffffffffffffffffffffffffffffffffff166323b872dd3033846040518463ffffffff1660e01b8152600401610dbe939291906116cb565b600060405180830381600087803b158015610dd857600080fd5b505af1158015610dec573d6000803e3d6000fd5b50505050336005600085815260200190815260200160002060040160006101000a81548173ffffffffffffffffffffffffffffffffffffffff021916908373ffffffffffffffffffffffffffffffffffffffff16021790555060016005600085815260200190815260200160002060060160006101000a81548160ff021916908315150217905550610e7e600261134e565b600360009054906101000a900473ffffffffffffffffffffffffffffffffffffffff1673ffffffffffffffffffffffffffffffffffffffff166108fc6004549081150290604051600060405180830381858888f19350505050158015610ee8573d6000803e3d6000fd5b50505060016000819055505050565b60056020528060005260406000206000915090508060000154908060010160009054906101000a900473ffffffffffffffffffffffffffffffffffffffff16908060020154908060030160009054906101000a900473ffffffffffffffffffffffffffffffffffffffff16908060040160009054906101000a900473ffffffffffffffffffffffffffffffffffffffff16908060050154908060060160009054906101000a900460ff16905087565b60606000610fb46001611340565b905060008060005b8381101561105d573373ffffffffffffffffffffffffffffffffffffffff1660056000600184610fec91906118bd565b815260200190815260200160002060030160009054906101000a900473ffffffffffffffffffffffffffffffffffffffff1673ffffffffffffffffffffffffffffffffffffffff16141561104a5760018361104791906118bd565b92505b8080611055906119a1565b915050610fbc565b5060008267ffffffffffffffff8111156110a0577f4e487b7100000000000000000000000000000000000000000000000000000000600052604160045260246000fd5b6040519080825280602002602001820160405280156110d957816020015b6110c6611364565b8152602001906001900390816110be5790505b50905060005b84811015611335573373ffffffffffffffffffffffffffffffffffffffff166005600060018461110f91906118bd565b815260200190815260200160002060030160009054906101000a900473ffffffffffffffffffffffffffffffffffffffff1673ffffffffffffffffffffffffffffffffffffffff16141561132257600060018261116c91906118bd565b90506000600560008381526020019081526020016000209050806040518060e0016040529081600082015481526020016001820160009054906101000a900473ffffffffffffffffffffffffffffffffffffffff1673ffffffffffffffffffffffffffffffffffffffff1673ffffffffffffffffffffffffffffffffffffffff168152602001600282015481526020016003820160009054906101000a900473ffffffffffffffffffffffffffffffffffffffff1673ffffffffffffffffffffffffffffffffffffffff1673ffffffffffffffffffffffffffffffffffffffff1681526020016004820160009054906101000a900473ffffffffffffffffffffffffffffffffffffffff1673ffffffffffffffffffffffffffffffffffffffff1673ffffffffffffffffffffffffffffffffffffffff168152602001600582015481526020016006820160009054906101000a900460ff161515151581525050848681518110611305577f4e487b7100000000000000000000000000000000000000000000000000000000600052603260045260246000fd5b602002602001018190525060018561131d91906118bd565b945050505b808061132d906119a1565b9150506110df565b508094505050505090565b600081600001549050919050565b6001816000016000828254019250508190555050565b6040518060e0016040528060008152602001600073ffffffffffffffffffffffffffffffffffffffff16815260200160008152602001600073ffffffffffffffffffffffffffffffffffffffff168152602001600073ffffffffffffffffffffffffffffffffffffffff168152602001600081526020016000151581525090565b6000813590506113f481611b09565b92915050565b60008135905061140981611b20565b92915050565b6000806040838503121561142257600080fd5b6000611430858286016113e5565b9250506020611441858286016113fa565b9150509250929050565b60008060006060848603121561146057600080fd5b600061146e868287016113e5565b935050602061147f868287016113fa565b9250506040611490868287016113fa565b9150509250925092565b6000602082840312156114ac57600080fd5b60006114ba848285016113fa565b91505092915050565b60006114cf838361161f565b60e08301905092915050565b6114e481611959565b82525050565b6114f381611959565b82525050565b61150281611947565b82525050565b61151181611947565b82525050565b600061152282611883565b61152c818561189b565b935061153783611873565b8060005b8381101561156857815161154f88826114c3565b975061155a8361188e565b92505060018101905061153b565b5085935050505092915050565b61157e8161196b565b82525050565b61158d8161196b565b82525050565b60006115a06040836118ac565b91506115ab82611a19565b604082019050919050565b60006115c36024836118ac565b91506115ce82611a68565b604082019050919050565b60006115e6601f836118ac565b91506115f182611ab7565b602082019050919050565b6000611609601c836118ac565b915061161482611ae0565b602082019050919050565b60e08201600082015161163560008501826116ad565b50602082015161164860208501826114f9565b50604082015161165b60408501826116ad565b50606082015161166e60608501826114db565b50608082015161168160808501826114db565b5060a082015161169460a08501826116ad565b5060c08201516116a760c0850182611575565b50505050565b6116b681611997565b82525050565b6116c581611997565b82525050565b60006060820190506116e06000830186611508565b6116ed6020830185611508565b6116fa60408301846116bc565b949350505050565b60006080820190506117176000830187611508565b6117246020830186611508565b61173160408301856116bc565b61173e6060830184611584565b95945050505050565b600060208201905081810360008301526117618184611517565b905092915050565b6000602082019050818103600083015261178281611593565b9050919050565b600060208201905081810360008301526117a2816115b6565b9050919050565b600060208201905081810360008301526117c2816115d9565b9050919050565b600060208201905081810360008301526117e2816115fc565b9050919050565b60006020820190506117fe60008301846116bc565b92915050565b600060e082019050611819600083018a6116bc565b6118266020830189611508565b61183360408301886116bc565b61184060608301876114ea565b61184d60808301866114ea565b61185a60a08301856116bc565b61186760c0830184611584565b98975050505050505050565b6000819050602082019050919050565b600081519050919050565b6000602082019050919050565b600082825260208201905092915050565b600082825260208201905092915050565b60006118c882611997565b91506118d383611997565b9250827fffffffffffffffffffffffffffffffffffffffffffffffffffffffffffffffff03821115611908576119076119ea565b5b828201905092915050565b600061191e82611997565b915061192983611997565b92508282101561193c5761193b6119ea565b5b828203905092915050565b600061195282611977565b9050919050565b600061196482611977565b9050919050565b60008115159050919050565b600073ffffffffffffffffffffffffffffffffffffffff82169050919050565b6000819050919050565b60006119ac82611997565b91507fffffffffffffffffffffffffffffffffffffffffffffffffffffffffffffffff8214156119df576119de6119ea565b5b600182019050919050565b7f4e487b7100000000000000000000000000000000000000000000000000000000600052601160045260246000fd5b7f506c65617365207375626d6974207468652061736b696e67207072696365206960008201527f6e206f7264657220746f20636f6d706c65746520746865207075726368617365602082015250565b7f5072696365206d75737420626520657175616c20746f206c697374696e67207060008201527f7269636500000000000000000000000000000000000000000000000000000000602082015250565b7f5265656e7472616e637947756172643a207265656e7472616e742063616c6c00600082015250565b7f5072696365206d757374206265206174206c6561737420312077656900000000600082015250565b611b1281611947565b8114611b1d57600080fd5b50565b611b2981611997565b8114611b3457600080fd5b5056fea2646970667358221220a9f4317799e36c0d470cc25885a2b7e619c1efa3a19d608c57d8af29f68c1e3964736f6c63430008040033",
  "linkReferences": {},
  "deployedLinkReferences": {}
}